:1000000016EF00F0EA6A060EE96EEF500EE0010E00
:10001000016E006A002EFED7012EFBD74A0E006E3D
:10002000002EFED700D0EF2EF2D7000CF86AD09E3B
:10003000EA6AE96AC29CC29EC150800B7F09C16E08
:100040008A8093908A9293928A949394040E056E78
:10005000FA0E066ED7DF052EFBD78A9093908A8220
:1000600093928A949394040E056EFA0E066ECADF7C
:10007000052EFBD78A9093908A9293928A849394C8
:10008000040E056EFA0E066EBDDF052EFBD7D8D71F
:0200900003006B
:020000040030CA
:0E00000000C10C1E0000810003C003E003409D
:00000001FF
